:03000000020A6D84
:0C0A6D00787FE4F6D8FD758113020AB40E
:080C4300020A0000020C00008F
:10099500758911758CEF758AF075A88F30850302FE
:1009A5000A5E20A505120B7C80F2D28CC292D293EE
:1009B500C294D2A4120AF9EE6003020A4AEF120C9D
:1009C5001D0A1C0009FC0109FA020A0A0309E804C8
:1009D5000A3E0609F10809EF0A0A310D09FE12005F
:1009E500000A4AE4F50AF50B8049800D750A007581
:1009F5000BC8E4803E8042800CE4F50EF50FF5103F
:100A0500751101800B750E00750F01E4F510F511D8
:100A1500F5087509018085750E00750F01751000C3
:100A25007511017508007509020209A1750A00759D
:100A35000BC8E4F50CF50D8019E4F50AF50BF50C7A
:100A4500750DC8800D750A00750BC8750C00750D00
:100A5500C8E4F508F5090209A1D28CD290D29175A6
:080A650008007509030209A154
:03000B00020800E8
:0F080000C0E0C0D075D000C004C005C006C0075E
:10080F00758CFE758AF0C28CE5096401450860039A
:10081F000208A7E50E450F24FF92907E007F00C3CC
:10082F00EF950BEE950A50070FBF00010E80F0E514
:10083F000E450F24FF92907E007F00C374C8950B66
:10084F00FDE4950AFCC3EF9DEE9C50070FBF00011E
:10085F000E80E8E510451124FF92917E007F00C3C2
:10086F00EF950DEE950C50070FBF00010E80F0E5D0
:10087F0010451124FF92917E007F00C374C8950D1F
:10088F00FDE4950CFCC3EF9DEE9C50070FBF0001DC
:10089F000E80E8D28C020988E5094508706AC2907B
:1008AF00FEFFC3EF950BEE950A50070FBF00010E29
:1008BF0080F0D2907E007F00C374C8950BFDE49545
:1008CF000AFCC3EF9DEE9C50070FBF00010E80E89E
:1008DF00C2917E007F00C3EF950DEE950C50070F70
:1008EF00BF00010E80F0D2917E007F00C374C895C7
:1008FF000DFDE4950CFCC3EF9DEE9C50070FBF0060
:10090F00010E80E8D28C8071E50964024508702BD6
:10091F00E50E450F24FF9290C292D293E510451138
:10092F0024FF9291D294C2A47E007F000FBF0001DA
:10093F000EBE01F8BF90F5D28C803EE5A0540F2477
:10094F00FE601224FE601824FC601A24077020C277
:10095F0092D2938004D292C293C294D2A48018C22E
:10096F0092D2938004D292C293D294C2A48008C22E
:09097F0092C293C294C2A4D28C6E
:0D098800D007D006D005D004D0D0D0E0328A
:100AF900E580541F120C1D0B5A000B42010B3A02E0
:100B09000B52030B22040B69060B32080B610C0B09
:100B19002A100B4A1800000B717512007513048016
:100B29004D75120075130A804575120075130880FA
:100B39003D75120075130280357512007513018019
:100B49002D75120075131280257512007513038017
:100B59001DE4F512F513801675120075130D800E3C
:100B69007512007513068006751200751363AE12AF
:020B7900AF13B8
:010B7B002257
:100B7C00C28CD290D291C292C293C294C2A4120BD4
:100B8C00AD120BA5120BF5120BCD120BF5120BCDF2
:090B9C00120BF5120BA5D28C22FC
:080BA500D292C293C294D2A4C3
:100BAD00E4FDFCE4FEFF0FBF00010EEF64964E70F6
:0F0BBD00F5E4FEFF0DBD00010CBC01E7BDF4E443
:010BCC002206
:080BCD00D292C293C294C2A4AB
:100BD500E4FDFCE4FEFF0FBF00010EEF64C84E709C
:0F0BE500F5E4FEFF0DBD00010CBC01E7BDF4E41B
:010BF40022DE
:080BF500C292D293C294D2A473
:100BFD00E4FDFCE4FEFF0FBF00010EEF64C84E7074
:0F0C0D00F5E4FEFF0DBD00010CBC01E7BDF4E4F2
:010C1C0022B5
:100A7900020995E493A3F8E493A34003F68001F2F5
:100A890008DFF48029E493A3F85407240CC8C3337E
:100A9900C4540F4420C8834004F456800146F6DF4D
:100AA900E4800B0102040810204080900C43E47E8E
:100AB900019360BCA3FF543F30E509541FFEE49342
:100AC900A360010ECF54C025E060A840B8E493A309
:100AD900FAE493A3F8E493A3C8C582C8CAC583CA34
:100AE900F0A3C8C582C8CAC583CADFE9DEE780BEEC
:010C4B0000A8
:100C1D00D083D082F8E4937012740193700DA3A366
:100C2D0093F8740193F5828883E47374029368607A
:060C3D00EFA3A3A380DF7A
:00000001FF
